:020000040800F2
:100000000014002099010008490400084504000874
:1000100047040008A5020008ED04000800000000E5
:1000200000000000000000000000000001010008C6
:10003000A702000800000000450100088504000830
:10004000B3010008B3010008B3010008B3010008C0
:10005000B3010008B3010008B3010008B3010008B0
:10006000B3010008B3010008B3010008B3010008A0
:10007000B3010008B3010008B3010008B301000890
:10008000B3010008B3010008B3010008B301000880
:10009000B3010008B3010008B3010008B301000870
:1000A000B3010008B3010008B3010008B301000860
:1000B000B3010008B3010008B5040008B30100084B
:1000C000B3010008B3010008B3010008B301000840
:1000D000B3010008B3010008B3010008B301000830
:1000E000B3010008B3010008B3010008DFF80CD029
:1000F00000F076F8004800470D05000800140020C5
:10010000224B19680868B0E8F00F80F30988BFF344
:100110006F8F4FF0000080F311884EF00D0E704786
:100120000000000006480068006880F3088862B696
:1001300061B6BFF34F8FBFF36F8F00DF00BF00BF0B
:1001400008ED00E0EFF30980BFF36F8F0F4B1A68E3
:1001500020E9F00F106008B54FF0500080F31188CF
:10016000BFF34F8FBFF36F8F00F05EFE4FF00000C4
:1001700080F31188BDE8084019680868B0E8F00FFE
:1001800080F30988BFF36F8F704700BF1400002011
:10019000EFF3058070470000064880470648004797
:1001A000FEE7FEE7FEE7FEE7FEE7FEE7FEE7FEE727
:1001B000FEE7FEE7B1040008ED00000840EA010395
:1001C0009B0703D009E008C9121F08C0042AFAD20D
:1001D00003E011F8013B00F8013B521EF9D27047D1
:1001E000064C074D06E0E06840F0010394E8070084
:1001F00098471034AC42F6D3FFF77CFF4017000855
:10020000601700081748816941F4007181618169B4
:1002100041F0040181611448016821F00F0101607F
:100220000168002101601148026842F00102026089
:10023000026842F0020202600C4A24321368116024
:100240000A4A2C3213681160016841F00401016010
:100250000168016841F001010160016841F4800119
:10026000016070470010024000080140082401406E
:100270000A4D0B4C00264FF47A6728682E6000F078
:10028000F7F82080B84205D900231A461946E068DD
:1002900000F0B4FE642000F0E9FCEEE70C0C014035
:1002A00000000020FEE770470748816941F008011F
:1002B00081610648016821F00F010160016841F089
:1002C000020101607047000000100240000C014074
:1002D00070477047704770B50446006801694FF079
:1002E0000005C943890715D4C168C943890711D4DA
:1002F000E91E01610120207720688069800720467F
:1003000002D0FFF7E7FF04E000F098F8204600F085
:1003100096F8257720680169C943490717D4C16851
:10032000C943490713D46FF004010161022020770B
:100330002068806910F4407F204602D0FFF7CAFF92
:1003400004E000F07BF8204600F079F8257720687B
:100350000169C943090716D4C168C943090712D402
:100360006FF008010161042020772068C0698007D0
:10037000204602D0FFF7AEFF04E000F05FF8204611
:1003800000F05DF8257720680169C943C90617D4D4
:10039000C168C943C90613D46FF010010161082078
:1003A00020772068C06910F4407F204602D0FFF714
:1003B00091FF04E000F042F8204600F040F8257775
:1003C00020680169C943C90708D1C168C943C90781
:1003D00004D1891E0161204600F032F820680169CD
:1003E000C943090609D4C168C943090605D46FF099
:1003F000800101612046FFF76BFF20680169C94356
:10040000490609D4C168C943490605D46FF04001C3
:100410000161204600F015F820680169C94389068A
:100420000BD4C168C943890607D46FF0200101616C
:100430002046BDE87040FFF74CBF70BD7047704765
:1004400070477047FEE7FEE770470000064D074C17
:100450004FF0FF363146E86800F080FE206840F03B
:1004600001002060F6E70000000000200C0C0140B5
:100470000348006802484C300168006880B2704749
:100480000024014010B5502080F31188BFF34F8F36
:10049000BFF36F8F00F0BEFF18B104494FF08050DA
:1004A0000860002080F3118810BD000004ED00E01A
:1004B000704700000148FFF70EBF0000C80200208F
:1004C0000948C16941F00101C16180044FF6FF7123
:1004D000C16241F63F718162016841F00101016032
:1004E0000169C907FCD0704700100240FEE702E036
:1004F00008C8121F08C1002AFAD1704770470020AF
:1005000001E001C1121F002AFBD170471CB513493D
:100510000020CDE900010346802211A1124800F01D
:1005200013FF0E490120091DCDE90001002380229F
:100530000EA1104800F008FF03220021012000F066
:10054000F5FC0649091FC860FFF7AEFEFFF75AFE2B
:10055000FFF7B6FF00F010F8FEE7000004000020EF
:100560005461736B203100004D0400085461736BBB
:10057000203200007102000810B500F017FC0020C6
:1005800010BD00002DE9F041184C0F460546666984
:100590002068001D00F0A6FA38B9206890F82C10E9
:1005A00001208840A1698143A161681C07D137B14E
:1005B0002168BDE8F0410E48091D00F0D7BA206857
:1005C0003544B5424560216805D2A068BDE8F041D8
:1005D000091D00F0B3BA6068091D00F0AFFA206B86
:1005E000854200D22563BDE8F081000014000020A0
:1005F000EC0300202DE9F041054600F0C3FA2E4C33
:100600002069401C206120682C4F10B1E06940B384
:100610002DE025602069012829D1002606EB8600FF
:1006200007EB800000F07CFA761C072EF6D32348F7
:100630008C3000F075FA2148A03000F071FA1F48A4
:10064000B43000F06DFA1D48C83000F069FA1B485C
:10065000DC3000F065FA19488C3060601430A0601E
:1006600005E02068E96AC06A884200D82560E06A2F
:10067000401CE062E96A0120A26988401043A06141
:1006800001EB810007EB8000291D00F06FFA00F0FC
:1006900099FAE06900280CD02068E96AC06A8842AB
:1006A00007D207494FF080500860BFF34F8FBFF368
:1006B0006F8FBDE8F08100001400002010030020BF
:1006C00004ED00E02DE9F041856B17460446002655
:1006D000026C82B1C7B1E068FFF770FDE168206C81
:1006E000091AE1602268914202D26168081AE0604A
:1006F000022F16D017E02068A8B9606800F0EEFE5F
:100700000646002060600EE0A068FFF757FD216CF0
:10071000A0680844A0606168884204D32068A06093
:1007200001E005B16D1E6D1CA5633046BDE8F0818A
:1007300010B5044690F8510058B101280CD0022899
:100740000FD0502080F31188BFF34F8FBFF36F8F0E
:10075000FEE7206B00F04AFA2046BDE8104000F0AA
:1007600045BA10BD10484FF44061420706D0C01D85
:100770000D4920F00700411AC1F540610B4A0023E2
:100780000144C2E900030839103A21F00701116061
:100790004B600B600B1AC0E9001393604FF00040F0
:1007A0005360D0607047000000040020600000200B
:1007B000144E154CA6F1C8074FF08058DFF84C9046
:1007C00012E000BF00F0DEF9F068C568281D00F0F7
:1007D00089F92069401E2061E068401EE06000F059
:1007E000F1F92846FFF7A4FFE0680028EAD138684D
:1007F0000128F9D9C9F80080BFF34F8FBFF36F8F7D
:10080000F2E70000D80300201400002004ED00E00F
:100810000346009829B10260C0E90F31012100F0C0
:10082000A9BB0060F8E72DE9F0479A46DDE90984A5
:1008300081466FF00303206B03EB82021044089D96
:1008400020F00706700707D0502080F31188BFF30F
:100850004F8FBFF36F8FFEE723180A5C83F83420B5
:100860000A5C12B1401C1028F6D3002784F84370AC
:10087000072D00D30625E562C4E91157201D00F0BD
:100880005AF904F1180000F056F92461C5F1070087
:100890006462A061E76484F850705246494630466D
:1008A00000F00EF92060B8F1000F01D0C8F8004048
:1008B000BDE8F08730B5114900E011460A68824270
:1008C000FBD34B685C18844203D1406818444860ED
:1008D000084643681C18944209D1084C103C24680F
:1008E000A24209D052681A4442600A681268026043
:1008F000814200D0086030BD0460F9E7600000204C
:1009000010B5044600F03EF9A06B28B15FF000047A
:1009100000F058F9204610BD0124F9E70648416867
:10092000096829B14168C968C968496801637047A5
:100930004FF0FF31FAE7000014000020084840683B
:10094000401C4FF0500080F3118804D0BFF34F8F4C
:10095000BFF36F8FFEE7BFF34F8FBFF36F8FFEE7DD
:10096000680000202DE9F041044600F00BF994F9ED
:10097000455004F1240609E0606A48B1304600F0B1
:1009800043FE08B100F0A0F96D1E6DB2002DF3DC3E
:100990004FF0FF3684F8456000F014F900F0F2F8EB
:1009A00094F9445004F1100709E0206948B1384631
:1009B00000F02AFE08B100F087F96D1E6DB2002D1F
:1009C000F3DC84F84460BDE8F04100F0FBB80000BF
:1009D0002DE9F0410546002700F01EFA314E30683F
:1009E00008B9FFF7BFFEF06805424BD1C5B3083523
:1009F00068070ED005F00700C0F10800054468073D
:100A000007D0502080F31188BFF34F8FBFF36F8F53
:100A1000FEE72DB37068854234D822481030014675
:100A20000C6801E020460C466168A94202D22168A8
:100A30000029F7D131688C4224D007682168016011
:100A400060680837411B10290FD96019420708D088
:100A5000502080F31188BFF34F8FBFF36F8FFEE7F5
:100A600010E041606560FFF725FF61687068401A1B
:100A70007060B268904200D2B060F068014300201C
:100A8000C4E9000100F0FAFD780707D0502080F398
:100A90001188BFF34F8FBFF36F8FFEE73846BDE875
:100AA000F0810000500000200449086818B108686F
:100AB000826C521C82640868704700001400002099
:100AC00010B5031F4FF080741C601B1F21F0010143
:100AD0001960191F024B0B60143940380A6010BDB1
:100AE0003D090008D0E9013201699A60D0E901238B
:100AF0005A604A68824201D182684A6000220261DB
:100B00000868401E0860086870470000034B0360D7
:100B100003F15400086080201060704774000020CA
:100B200000F108014FF0FF32C0E90112C16001611C
:100B300000210160704700210161704730B50B68EA
:100B40005A1C02D000F1080202E0026904E02246C9
:100B5000546825689D42FAD953684B6099608A6051
:100B6000516008610168491C016030BD42684A60FB
:100B700093688B6093685960916008610168491CB3
:100B800001607047502080F31188BFF34F8FBFF38F
:100B90006F8F0A494868401C486001280CD10848FA
:100BA000006810F0FF0F07D0502080F31188BFF3CA
:100BB0004F8FBFF36F8FFEE7704700006800002083
:100BC00004ED00E00849486828B1401E486001D1A2
:100BD00080F311887047502080F31188BFF34F8F46
:100BE000BFF36F8FFEE700006800002070B500289B
:100BF00027D0144DA0F108046168E868014207D1CC
:100C0000502080F31188BFF34F8FBFF36F8FFEE743
:100C100022683AB1502080F31188BFF34F8FBFF3A1
:100C20006F8FFEE78143616000F0F6F860686968E5
:100C3000084468602046FFF73DFEBDE8704000F0C4
:100C40001DBD70BD500000204FF0E020002101616B
:100C5000816105494FF47A720968B1FBF2F1491ECE
:100C600041610721016170471000002010B50200AA
:100C700014D00F48806B38B1502080F31188BFF337
:100C80004F8FBFF36F8FFEE700F0C6F800211046CC
:100C9000FFF778FC00F0F2FC002807D105494FF07F
:100CA00080500860BFF34F8FBFF36F8F10BD0000FF
:100CB0001400002004ED00E002498A6A02604969DC
:100CC00041607047140000200149012048627047CC
:100CD0001400002010B50C4650B1094909681831BC
:100CE000FFF72CFF2046BDE810400121FFF74ABC6A
:100CF000502080F31188BFF34F8FBFF36F8FFEE753
:100D00001400002070B504004BD0A26CA2B1606C3E
:100D1000884200D30146E06A884242D0012A40D18D
:100D2000204D2A6894420FD1502080F31188BFF3E0
:100D30004F8FBFF36F8FFEE7502080F31188BFF312
:100D40004F8FBFF36F8FFEE7E162A269002A02DBDB
:100D5000C1F10701A161144E00EB8000616906EB4F
:100D6000800081421DD1201DFFF7BCFE012150B93A
:100D7000E06A00EB800256F8222022B9AA6901FA43
:100D800000F08243AA61E06AAA6981401143A96127
:100D900000EB800006EB8000211DBDE87040FFF7EE
:100DA000E5BE70BD140000201003002010B586B011
:100DB0000024039405AA04A903A80494FFF7A6FE3F
:100DC000DDE903010094CDE9011000230EA11048D4
:100DD000059A00F0E6FA0F490028486311D0502028
:100DE00080F31188BFF34F8FBFF36F8F4FF0FF3049
:100DF00008630120C8614C6106B0BDE8104000F0F6
:100E000041B806B010BD000049444C450000000048
:100E1000B1070008140000200248816B491C81635F
:100E200070470000140000201448816B11B10121AB
:100E300041627047002141628169B1FA81F1C1F1DB
:100E40001F0101EB81020E4951F822306BB101EB19
:100E5000820101F108034A6852684A609A4201D14E
:100E600052684A60D16801607047502080F3118851
:100E7000BFF34F8FBFF36F8FFEE700001400002019
:100E8000100300201CB5264908780190FF20087047
:100E900008788DF800009DF800009DF8002000F013
:100EA000F000904207D0502080F31188BFF34F8F9D
:100EB000BFF36F8FFEE79DF800001A4B00F0500063
:100EC00018700720986005E09DF8002052008DF80A
:100ED0000020401E9DF800201206F5D498600328DB
:100EE00007D0502080F31188BFF34F8FBFF36F8F6F
:100EF000FEE74FF440709860019808700A48016856
:100F000041F470010160016841F070410160FFF738
:100F10009BFE00205860FFF705F900201CBD000073
:100F200000E400E06800002020ED00E0F8B517467E
:100F30000E46050014D0DEB105FB06F04830FFF781
:100F400047FD04000AD0002084F8460004F148025E
:100F50003B46314628460094FFF75AFC2046F8BD30
:100F6000502080F31188BFF34F8FBFF36F8FFEE7E0
:100F70000020E3E770B50D46040025D0FFF702FE20
:100F8000D4E90F20216802FB001161600021A163F8
:100F90002168A1600A46D4E90F01401E00FB01212F
:100FA000E16021464FF0FF3001F8440F487004F132
:100FB00010008DB1FFF7B4FD04F12400FFF7B0FD80
:100FC000FFF700FE012070BD502080F31188BFF3B1
:100FD0004F8FBFF36F8FFEE721690029F0D000F03B
:100FE00013FB0028ECD004494FF080500860BFF399
:100FF0004F8FBFF36F8FE3E704ED00E02DE9FF476C
:1010000082B01D468A464FF00008040003D0BAF1B2
:10101000000F08D011E0502080F31188BFF34F8FEC
:10102000BFF36F8FFEE7206C38B1502080F311883A
:10103000BFF34F8FBFF36F8FFEE7022D0AD1E06B36
:10104000012807D0502080F31188BFF34F8FBFF3E2
:101050006F8FFEE700F0D0F93F4F4FF000094FF0DF
:10106000805648B9049838B1502080F31188BFF3F6
:101070004F8FBFF36F8FFEE7FFF784FDA06BE16B2F
:10108000884207D3022D05D00498D0B1B8F1000FE3
:101090001AD01EE02A4651462046FFF713FB616A2C
:1010A00019B104F1240000F0AFFA20B13E60BFF3A3
:1010B0004F8FBFF36F8FFFF785FD012006B0BDE8AE
:1010C000F087FFF77FFD22E06846FFF7F5FD4FF060
:1010D0000108FFF777FDFFF79FFEFFF753FD94F937
:1010E0004400401C01D184F8449094F94500401C10
:1010F00001D184F84590FFF765FD04A9684600F02A
:10110000E9F830B12046FFF72DFC00F0B7FA0020D7
:10111000D4E7FFF737FDA06BE16B884213D1FFF7EF
:1011200051FD04F110000499FFF7D4FD2046FFF7AC
:1011300019FC00F0A3FA00289ED13E60BFF34F8F48
:10114000BFF36F8F98E7FFF73DFD2046FFF70AFCDE
:1011500000F094FA90E7000004ED00E02DE9F3437D
:10116000002683B00400354609D0206C78B15020A9
:1011700080F31188BFF34F8FBFF36F8FFEE75020CE
:1011800080F31188BFF34F8FBFF36F8FFEE700F03E
:1011900033F9DFF83C814FF000094FF0805748B930
:1011A000049838B1502080F31188BFF34F8FBFF3FC
:1011B0006F8FFEE7FFF7E6FCA06BC8B1401EA0638F
:1011C000206810B9FFF770FC6060206950B104F12D
:1011D000100000F019FA28B1C8F80070BFF34F8F63
:1011E000BFF36F8FFFF7EEFC012005B0BDE8F08381
:1011F000049808B166B10FE03DB1502080F311882A
:10120000BFF34F8FBFF36F8FFEE7FFF7DBFC5DE0AF
:101210006846FFF751FD0126FFF7D4FCFFF7FCFD00
:10122000FFF7B0FC94F94400401C01D184F84490CD
:1012300094F94500401C01D184F84590FFF7C2FCA9
:1012400004A9684600F046F80028204612D0FFF7AF
:1012500089FB00F013FA2046FFF752FB0028A9D0C3
:101260009DB3FFF78FFC606A50B3206B0068C0F13C
:10127000070126E0FFF744FBE0B1206838B9FFF72B
:1012800081FC606800F076F90546FFF79BFC04F1ED
:1012900024000499FFF71EFD2046FFF763FB00F0D2
:1012A000EDF9002886D1C8F80070BFF34F8FBFF367
:1012B0006F8F7FE72046FFF755FB00F0DFF979E7F6
:1012C00000216068FFF71EFD9FE7FFE700208CE725
:1012D00004ED00E02DE9F0410C46050011D0C4B149
:1012E000FFF750FC174B5A696E682068911B471C2A
:1012F00017D02F689B6A9F4219D0964217D80124B5
:1013000010E0502080F31188BFF34F8FBFF36F8F31
:10131000FEE7502080F31188BFF34F8FBFF36F8F2C
:10132000FEE70024FFF74EFC2046BDE8F08188422E
:1013300005D9401A20602846FFF7BEFCF1E70020DF
:101340002060DCE7140000202DE9FF5F8346DDE923
:101350000E87994616468A469000FFF739FB05002E
:101360001CD05420FFF734FB040014D00020256368
:1013700084F85100CDE90240CDE900874B46324662
:1013800051465846FFF74FFA2046FFF733F9012040
:1013900004B0BDE8F09F2846FFF728FC4FF0FF306F
:1013A000F6E7F0B585B0DDE90B640A9DA6B1DCB1C6
:1013B000542700972663022684F85160002604AF64
:1013C000CDE90246CDE90057FFF72DFA2046FFF799
:1013D00011F9049805B0F0BD502080F31188BFF3D7
:1013E0004F8FBFF36F8FFEE7502080F31188BFF35C
:1013F0004F8FBFF36F8FFEE70548C16919B1806B4E
:1014000018B100207047012070470220704700008B
:10141000140000202DE9F0412E4C0027A06B40B1B4
:10142000206A401C2062606A00B101273846BDE88E
:10143000F0816669761C666113D16068006838B116
:10144000502080F31188BFF34F8FBFF36F8FFEE7FB
:101450006068A1686160A060A06A401CA062FFF79C
:101460005DFA206BDFF87080864209D360680068FF
:1014700080B16068C068C568686886420DD2206324
:101480002068C06A00EB800158F821000128CAD901
:101490000127C8E74FF0FF30F1E7281DFFF722FBD7
:1014A000A86A18B105F11800FFF71CFBE86A0121D2
:1014B000A26981401143A16100EB800108EB81002A
:1014C000291DFFF753FBE86A2168C96A8842CDD31A
:1014D0000127CBE7140000201003002070B50400A2
:1014E0004FF0000140D0214D2868844207D05020A1
:1014F00080F31188BFF34F8FBFF36F8FFEE7A06CAF
:1015000038B1401EA064636CE26A9A422CD040B1AC
:101510002AE0502080F31188BFF34F8FBFF36F8F05
:10152000FEE7201DFFF7DEFA114A012150B9E06AFB
:1015300000EB800352F8233023B9AB6901FA00F0C5
:101540008343AB61606CE062C0F10700A061E06AB8
:10155000AB6981401943A96100EB800002EB800078
:10156000211DFFF703FB0121084670BD1400002078
:101570001003002070B504004FF0000038D0204D5B
:10158000E16A2A68D26A914233D2A069002804DB5A
:101590002868C06AC0F10700A0611A4E01EB810102
:1015A000606906EB810188421ED1201DFFF79AFA7F
:1015B000012150B9E06A00EB800256F8222022B9DE
:1015C000AA6901FA00F08243AA612868C06AE06251
:1015D000AA6981401143A96100EB800006EB8000FD
:1015E000211DFFF7C3FA02E02868C06AE06201200B
:1015F00070BD616C2A68D26A9142F8D370BD000058
:1016000014000020100300202DE9F041C068C468D8
:10161000ACB104F118000746FFF764FA154DA86B4A
:101620000126A0B139461448FFF7A0FAE06A2968FC
:10163000C96A88421CD901206E62BDE8F081502041
:1016400080F31188BFF34F8FBFF36F8FFEE7201D2C
:10165000FFF748FAE16AAA6906FA01F01043A861A7
:1016600001EB81000449B43901EB8000211DDBE767
:101670000020E2E714000020C40300202DE9F04719
:101680002C4D00242746A86B38B1FFF77BFAA86BD6
:10169000401EA863A86B40B146E0502080F311883B
:1016A000BFF34F8FBFF36F8FFEE72969224E0120F2
:1016B000D1B3A6F1B40980463068E8B1F068C468D7
:1016C00004F11800FFF70EFA201DFFF70BFAE06A8D
:1016D000AA6908FA00F11143A96100EB800109EB46
:1016E0008100211DFFF742FAE06A2968C96A884231
:1016F000E2D3C5F82480DFE70CB1FFF70FF92C6ABD
:1017000044B14646FFF786FE00B16E62641EF9D111
:1017100000202862686A38B1084901273807086044
:10172000BFF34F8FBFF36F8FFFF74CFA3846BDE81A
:10173000F087000014000020C403002004ED00E046
:10174000601700080000002074000000EE0400088C
:10175000D4170008740000208C130000FE04000859
:101760000000000000000000000000000000000079
:101770000024F40000000000000000000000000051
:101780000000000000000000000000000000000059
:101790000000000000000000000000000000000049
:1017A0000000000000000000000000000000000039
:1017B0000000000000000000000000000000000029
:1017C000000000000000000000000000AAAAAAAA71
:0417D0000000000015
:04000005080000ED02
:00000001FF
